:100000000C9490030C942B0C0C94AD030C94AD0346
:100010000C94AD030C94AD030C94AD030C94AD03A0
:100020000C94AD030C94AD030C94AD030C94AD0390
:100030000C94AD030C94AD030C94DB0C0C94AD0349
:100040000C94AD030C94AD030C94B8070C945B07AF
:100050000C94AD030C9430050C9415110C94AD0365
:100060000C94AD030C94AD0393059905C405C70525
:10007000CA05CD05D005D305D605D905DC05DF05B4
:10008000E205E505E805EB05EE05F105F4050706D3
:100090000C0637063A063D06400643064606490664
:1000A0004C064F065206550658065B065E0661066C
:1000B000640667066A066D06730642085008530810
:1000C000B008B0085608B008B008B008B008B008CA
:1000D0006408B0086E08B008B0087808B0088A084C
:1000E0009A08B0089E08AA08B008B008B008B0087E
:1000F000B008B008B008B008B008B008B008B00840
:10010000B008B008B008B008B0086008B008B0087F
:1001100067086B087308B0087C08B008B0087F084F
:10012000D2FFFFFFFFFFFFFFFFFFFFFFFFFFFFFF0C
:10013000FFFFFFFFFFFFFFFFFDFBF9F7F5F4F2F014
:10014000EFEDEBEAE8E7E5E4E3E1E0DEDDDCDAD978
:10015000D8D7D5D4D3D2D1CFCECDCCCBCAC8C7C6B1
:10016000C5C4C3C2C1C0BFBEBDBCBAB9B8B7B6B5BD
:10017000B4B3B2B1B0AFAEAEADACABAAA9A8A7A6AE
:10018000A5A4A3A2A1A09F9E9D9D9C9B9A99989790
:1001900096959493929291908F8E8D8C8B8A89886C
:1001A0008787868584838281807F7E7D7C7B7A7948
:1001B000797877767574737271706F6E6D6C6B6A27
:1001C000696867666564636261605F5E5D5C5A5919
:1001D00058575655545351504F4E4D4C4A49484725
:1001E00045444342403F3E3C3B3938373534323159
:1001F0002F2E2C2A2927252422201E1C1A181614DB
:1002000012100E0C0907040200000000000000009C
:10021000000000000000000000000000000000D20C
:10022000644E4E4E4E4E4E4E4E4E4E4E4E4E4E4ED8
:100230004E4E4F4F4F5050505151515252525353B6
:100240005353535454545455555555555656565664
:100250005657575757575858585858585859595922
:100260005959595A5A5A5A5A5A5A5B5B5B5B5B5BEB
:100270005B5B5C5C5C5C5C5C5C5C5D5D5D5D5D5DBA
:100280005D5D5E5E5E5E5E5E5E5E5E5F5F5F5F5F8B
:100290005F5F5F606060606060606061616161615C
:1002A0006161616161616262626262626262636332
:1002B0006363636363646464646464646464646502
:1002C00065656565656565666666666666666767D3
:1002D00067676767676868686868686868696969A0
:1002E0006969696A6A6A6A6A6B6B6B6B6B6B6C6C67
:1002F0006C6C6C6C6D6D6D6D6E6E6E6E6F6F6F6F26
:1003000070707070717171727273737474747575CA
:100310007676777878797A7B7C7D7D7D7D7D7D644E
:10032000648D8D8D8D8D8C8C8C8C8B8B8B8B8B8A37
:100330008A8A8A8A89898989898888888888878732
:100340008787878686868686858585858584848455
:10035000848483838383828282828281818181817A
:1003600080808080807F7F7F7F7F7E7E7E7E7E7D9F
:100370007D7D7D7D7C7C7C7C7C7B7B7B7B7A7A7AC3
:100380007A7A7979797979787878787877777777E8
:10039000777676767676757575757574747474740B
:1003A0007373737373727272727171717171707031
:1003B0007070706F6F6F6F6F6E6E6E6E6E6D6D6D55
:1003C0006D6D6C6C6C6C6C6B6B6B6B6B6A6A6A6A78
:1003D000696969696968686868686767676767669F
:1003E00066666666656565656564646464646363C2
:1003F00063636362626262626161616160606060E6
:10040000605F5F5F5F5F5E5E5E5E5E5D5D5D5D5D0A
:100410005C5C5C5C5C5B5B5B5B5B5A5A5A5A5A6423
:10042000648D8D8C8C8B8B8B8A8A89898888878751
:10043000868686858584848383828281818080808C
:100440007F7F7E7E7D7D7C7C7B7B7A7A7A797978F2
:100450007877777676757574747473737272717158
:1004600070706F6F6E6E6E6D6D6C6C6B6B6A6A69BF
:100470006968686867676666656564646363626225
:1004800062616160605F5F5E5E5D5D5C5C5C5B5B8A
:100490005A5A5959585857575756565555545453F0
:1004A00053525251515150504F4F4E4E4D4D4C4C56
:1004B0004B4B4B4A4A4949484847474646454545BC
:1004C000444443434242414140403F3F3F3E3E3D22
:1004D0003D3C3C3B3B3A3A39393938383737363688
:1004E000353534343333333232313130302F2F2EEF
:1004F0002E2D2D2D2C2C2B2B2A2A29292828282754
:1005000027262625252424232322222221212020B8
:100510001F1F1E1E1D1D1C1C1C1B1B1B1B1B1B64CD
:10052000640A0B0B0C0C0D0D0E0E0E0F0F1010119C
:100530001111121213131414151515161617171876
:10054000181819191A1A1B1B1B1C1C1D1D1E1E1FF7
:100550001F1F202021212222222323242425252677
:100560002626272728282929292A2A2B2B2C2C2CF8
:100570002D2D2E2E2F2F3030303131323233333378
:10058000343435353636373737383839393A3A3AF8
:100590003B3B3C3C3D3D3D3E3E3F3F404041414179
:1005A00042424343444444454546464747474848FA
:1005B00049494A4A4B4B4B4C4C4D4D4E4E4E4F4F7A
:1005C00050505151525252535354545555555656FA
:1005D000575758585859595A5A5B5B5C5C5C5D5D7B
:1005E0005E5E5F5F5F6060616162626363636464FB
:1005F0006565666666676768686969696A6A6B6B7C
:100600006C6C6D6D6D6E6E6F6F70707071717272FB
:100610007373747474757576767777777878796490
:10062000640A0B0C0D0E0F10111213141516171867
:10063000191A1B1C1D1E1F202122232425262728B2
:10064000292A2B2C2D2E2F303132333435363738A2
:10065000393A3B3B3C3D3E3F40414243444546479F
:1006600048494A4B4C4D4E4F505152535455565792
:1006700058595A5B5C5D5E5F606162636465666782
:1006800068696A6B6C6D6E6E6F707172737475767B
:100690007778797A7B7C7D7E7F8081828384858672
:1006A0008788898A8B8C8D8E8F9091929394959662
:1006B0009798999A9B9C9D9E9FA0A0A1A2A3A4A558
:1006C000A6A7A8A9AAABACADAEAFB0B1B2B3B4B552
:1006D000B6B7B8B9BABBBCBDBEBFC0C1C2C3C4C542
:1006E000C6C7C8C9CACBCCCDCECFD0D1D2D2D3D435
:1006F000D5D6D7D8D9DADBDCDDDEDFE0E1E2E3E432
:10070000E5E6E7E8E9EAEBECEDEEEFF0F1F2F3F421
:10071000F5F6F7F8F9FAFBFCFDFEFFFFFFFFFF64BB
:1007200011241FBECFEFD8E0DEBFCDBF11E0A0E0A7
:10073000B1E0EAE4F6E202C005900D92A230B10702
:10074000D9F713E0A2E0B1E001C01D92A034B107D7
:10075000E1F70E9407040C9423130C94000090917D
:1007600018018BB1887F9770892B8BB908951F93DF
:1007700018B817B814E11093240122E024BD25BD58
:1007800087EC87BD20936E002093800089E18093E1
:10079000810088EE93E090938700809386002093F9
:1007A000690081E08DBB0E94E7070E9405110E944D
:1007B000F4110E941F058091290180932F010E944E
:1007C000DC091092E2011093E3011092ED018FEF2A
:1007D0009FEF9093EA018093E9011092EC0110924F
:1007E000EB011092EF011092EE018091E7018093EE
:1007F000E8011092F1011092F70186E980931F0140
:100800000E94B2080E94880F2C9A1F9108950F939E
:100810001F930E94B7030E948D09789411E001E0B4
:10082000909118018BB1887F9770892B8BB90E94AA
:10083000DC09909118018BB1887F9770892B8BB957
:100840000E94E904909118018BB1887F9770892BE1
:100850008BB90E94D604909118018BB1887F977054
:10086000892B8BB98091E30180FF09C0F8948091B6
:10087000E3018E7F8093E30178940E945109809177
:1008800018019BB1987F8770982B9BB98091ED01DF
:100890008823C1F18091E30184FF09C09091ED01AB
:1008A00080911603891718F00E94BB092BC0F89499
:1008B0008091E3018F7E8093E3017894112339F0D6
:1008C000F8948091E20182608093E20178940E9422
:1008D000B80B909118018BB1887F9770892B8BB9D9
:1008E0000E94CD0A0E94C6080E94E5080E940712D5
:1008F000909118018BB1887F9770892B8BB90E94DA
:100900005A0A10E0809118019BB1987F8770982B4C
:100910009BB98091020280FF11C0F894809102027D
:100920008E7F8093020278948091E20180FF06C05E
:100930008091220383FD02C00E94BA0F80910202BF
:1009400082FF22C0F894809102028B7F8093020282
:1009500078948091E20180FF10C08091E30182FFD2
:1009600013C080911F01882311F081500BC080912A
:10097000E3018B7F8093E30107C080911F018639DB
:1009800018F48F5F80931F01909118018BB1887FBD
:100990009770892B8BB90E94D61180E391E06BEFA1
:1009A00077E00E94BB12009319013ACF2091E50134
:1009B0004091010330E0842F90E003972817390716
:1009C00014F42B9A08958091E501841708F02B9870
:1009D00008958091E50120911E03281710F42D98A9
:1009E00008958091E50190E030E040911F03241BC1
:1009F0003109281739070CF02D9A08951092280113
:100A000080E680937C008FEC80937A00089597E8CD
:100A100090937A008F70806680937C0080917A003A
:100A2000806480937A0080917A0084FFFCCF80916B
:100A30007A00806180937A008091790008951F93F5
:100A4000CF93DF93C9E2D1E010E0812F0E94070528
:100A500089931F5F1630C9F7DF91CF911F910895D9
:100A60001F920F920FB60F9211242F933F938F93E3
:100A70009F93AF93BF93EF93FF9330912801E32FA0
:100A8000F0E0DF01A75DBE4F2C91EE5FFE4F2083AB
:100A90008091790090E0820F911D969587958C93B7
:100AA0008091200380FF06C0332321F480912E0122
:100AB00080932901E32FEF5FE0932801E63030F0C7
:100AC0001092280180917A00877F07C0E770E06666
:100AD000E0937C0080917A00806480937A00FF919B
:100AE000EF91BF91AF919F918F913F912F910F9077
:100AF0000FBE0F901F90189580912401089580914A
:100B00000002909101020895E82FF0E0E331F10531
:100B100040F4EC5CFF4FEE0FFF1F0590F491E02DC9
:100B2000099420E063C08091000290910102282F77
:100B30005DC06091F0014091F601862F90E050E099
:100B40009C0122703070220F331F84709070880FC8
:100B5000991F282B6170262BCA0181709070880F15
:100B6000991F282BCA018270907033E0880F991F5B
:100B70003A95E1F7282B4470507083E0440F551FDD
:100B80008A95E1F7242B32C02091E2012FC02091F9
:100B90002F012CC02091290129C020912E0126C0AF
:100BA00020912A0123C020912D0120C020912B01EA
:100BB0001DC020912C011AC02091D80117C020918E
:100BC000D90114C02091DA0111C02091ED010EC0AD
:100BD0002091F1010BC02091DE0108C02091DB01C2
:100BE00005C02091DC0102C02091DD01822F089513
:100BF000E82FF0E0E631F10540F4E95BFF4FEE0F3E
:100C0000FF1F0590F491E02D099420E071C08091C0
:100C10000002909101026BC06091F0014091F601D9
:100C2000862F90E050E09C0122703070220F331F1D
:100C300084709070880F991F282B6170262BCA0131
:100C400081709070880F991F282BCA018270907054
:100C5000A3E0880F991FAA95E1F7282B44705070E4
:100C6000F3E0440F551FFA95E1F7242B41C0209182
:100C7000E2013EC020912F013BC02091290138C0E4
:100C800020912E0135C020912A0132C020912D01E2
:100C90002FC020912B012CC020912C0129C0209124
:100CA000D80126C02091D90123C02091DA0120C0AB
:100CB0002091ED011DC02091F1011AC02091DE01AB
:100CC00017C02091DB0114C02091DC0111C02091DC
:100CD000DD010EC0209106020BC08091E9019091C8
:100CE000EA01292F05C08091E9019091EA01282F9E
:100CF000822F0895982F883B08F041C08034D0F4AB
:100D0000E82FE695E695E695F0E023E0EE0FFF1F6D
:100D10002A95E1F79770E90FF11DDF01AA0FBB1FBC
:100D2000A85FBD4F962F80E08F678D939C93E85707
:100D3000FD4F0BC08456883020F0892F8C568830A8
:100D400030F4E92FF0E0EC59FD4F608308959437BB
:100D500018F0E92FE05502C0E92FE054F0E0E85226
:100D6000FD4F60839F3529F46093F4016093FA018D
:100D70000895903621F46093F5016093FB01089586
:100D8000E82FF0E0F096E836F10510F080E00895E5
:100D9000E852FD4F80810895982F803498F4E82F11
:100DA000E695E695E695F0E0977043E0EE0FFF1FBD
:100DB0004A95E1F7E90FF11DEE0FFF1FE85FFD4FC8
:100DC000818108958456883020F0892F8C56883090
:100DD00030F4E92FF0E0EC59FD4F8081089594370D
:100DE00018F0892F805502C0892F8054E82FF0E039
:100DF000E852FD4F8081089580E00895883610F014
:100E000080E00895E82FF0E0E852FD4F80810895DA
:100E1000E82FF0E0EE0FFF1FE85FFD4F818108959E
:100E2000E82FF0E0EE0FFF1FE85FFD4F808108958F
:100E3000E82FF0E0E857FD4F8081089587FD0BC053
:100E4000E82FF0E0EE0FFF1FE85FFD4F962F80E0E8
:100E50008F6791838083089587FD05C0E82FF0E0B8
:100E6000E857FD4F608308959C0180915301A82F9E
:100E7000B0E011969A2F9F7111978091D401981725
:100E800011F48FEF089561116150AA0FBB1FAA0FD3
:100E9000BB1FFD01EC5AFE4F31832083AA5ABE4F7F
:100EA0006C931382909353018091C1008062809370
:100EB000C10080E008951F920F920FB60F92112487
:100EC0002F933F934F935F936F937F938F939F9352
:100ED000AF93BF93EF93FF93E091D401F0E0EE0F57
:100EE000FF1FEE0FFF1FEC5AFE4F208131818381DF
:100EF000F90109958093C6008091D401282F30E034
:100F0000D901AA0FBB1FAA0FBB1FAC5ABE4F139625
:100F10009C911397F901EE0FFF1FEE0FFF1FEA5A86
:100F2000FE4F8081981720F49F5F13969C930FC00B
:100F3000C90101968F7190708093D4012091530163
:100F4000281729F48091C1008F7D8093C100FF9103
:100F5000EF91BF91AF919F918F917F916F915F9131
:100F60004F913F912F910F900FBE0F901F901895AA
:100F70001F920F920FB60F9211242F933F934F930E
:100F80005F936F937F938F939F93AF93BF93EF93F1
:100F9000FF938091C000887119F08091C60006C04F
:100FA0006091C60080E391E00E949F12FF91EF9153
:100FB000BF91AF919F918F917F916F915F914F9171
:100FC0003F912F910F900FBE0F901F90189588E9B9
:100FD0008093C10086E08093C2001092C50087E62E
:100FE0008093C4001092D4011092530180E391E0E9
:100FF0000E949A120895682F80910A01813019F099
:10100000823079F506C06093090182E080930A017D
:10101000A7C0809108018735E9F08E3619F08E342B
:10102000E9F40FC0E0910901E7FD18C0F0E0EE0F10
:10103000FF1FE85FFD4F962F80E08F6791838083CD
:101040000DC0E0910901E7FD09C0F0E0E857FD4F50
:10105000608304C0809109010E947A0610920A01FF
:101060007FC0862F90E0FC01E154F040E333F105AE
:1010700008F076C0E35AFF4FEE0FFF1F0590F49182
:10108000E02D0994809124018A3721F488EF95E0BE
:101090006BE103C084E895E066E10E94340760C01C
:1010A0000E9408115DC08FE795E024C08091C100C7
:1010B0008F7D8093C1001092D4011092530150C0D3
:1010C0008CEF96E067E0E9CF88E097E002C080E12E
:1010D00097E060E4E2CF88E197E0FBCF81E0809386
:1010E0000A018EE43BC081E080930A018EE636C09F
:1010F0008CE795E061E0D1CF1092060231C0F89400
:1011000081E0809305028091040283608093040251
:10111000789426C0F89481E08093050280910402BF
:10112000816080930402809104028D7F8093040289
:10113000789416C08EEF96E068E6AFCF80912401D8
:101140008A3721F48CEC96E060E8A7CF8CEC96E02F
:101150006DE7A3CF81E080930A0187E580930801C2
:1011600080E0089584E68093D8018093D90180932C
:10117000DA018093DB018093DC018093DD01109222
:10118000DE018093DF018093E00108959091E701F3
:1011900080912503891750F08091E001882351F454
:1011A0009091ED0180913F03891770F084E6809360
:1011B000E0010895843641F49091ED0180913E0361
:1011C000981710F01092E00108954091F002442326
:1011D00021F19091ED01809100039817F0F080913A
:1011E000E2018073D1F49091E5018091EE029817AD
:1011F000A0F08091FE0290E09C012270307081FD91
:1012000004C08091E701853B40F48091E30182FDB9
:1012100004C08091E401863568F084E68093D801AB
:101220001092E101F8948091E301877F8093E301BC
:1012300078940895F8948091E30188608093E301A5
:1012400078949091E1018091EF02891748F510920E
:10125000E10180912C0190910203891709F180919D
:101260002C01891718F4232B89F402C0232B71F069
:101270009091F1029C598091D801840F981718F42D
:101280009093D80108958093D801089594E68091B1
:10129000F102981B8091D801841B8917A0F7F0CF29
:1012A0000895F8946091E9017091EA017894409171
:1012B000FA028091FB026115710541F1342F20E0A3
:1012C00090E0822B932B9C0153E0220F331F5A9501
:1012D000E1F7880F991F820F931F0E94D612709317
:1012E000EF016093EE018091EE019091EF016AE0D1
:1012F00070E00E94D612872F90E0892B21F08FEFAB
:101300008093ED0108956093ED0108951092ED0131
:101310001092EF011092EE0108950F93409118037F
:10132000442321F480911903882319F18091E70166
:101330008B39F8F40091E50180E06DEC2091190300
:101340000E94BB0E8093F1018093F7011092F2018D
:101350001092F8018091F00183608093F0018091F8
:10136000F60183608093F6018091E20181608093B1
:10137000E2010F9108950F93F8948091E201826049
:10138000837F8093E20178948091E7018B3910F09C
:1013900080E00AC00091E50180E06DEC4091D80248
:1013A0002091D9020E94BB0EF8948093F3018093A0
:1013B000F90178940F9108950F938091FC0290E0C9
:1013C000DC01A170B07080FF07C0E0912901F0E05E
:1013D000E05EF94FE49106C0E0912901F0E0E05EA3
:1013E000FA4FE491E093E4018091FE0283FF33C061
:1013F00080912F01682F70E0E0911C034E2F50E088
:1014000080911D03282F30E0CA01821B930B6817BF
:1014100079072CF0240F351F2617370754F4E09373
:10142000DB01F8948091E30182608093E30178947A
:1014300015C0AB2B39F0E0912F01F0E0E05EFB4FDF
:10144000E49106C0E0912F01F0E0E05EFC4FE491F2
:10145000E093DB0103C084E68093DB01E0912A0185
:10146000F0E0E05EFE4FE491E093E501E0912E01B3
:10147000F0E0E05EFD4F24918091E2018A7051F42A
:10148000223640F40091ED0187E06FE042E60E94D1
:10149000BB0E282F2093D90100912D0180911A03B2
:1014A00060911B0340E02FEF0E94BB0E8093E70189
:1014B0000F9108950F931F936091DA018091DF01DE
:1014C00070E00E94A80EBC018091E0010E94A80E6D
:1014D000BC018091D9010E94A80EBC018091D80165
:1014E0000E94A80EBC018091DB010E94A80EBC01E5
:1014F000872F90E0892B21F08FEF8093DC0102C0D1
:101500006093DC018091DD010E94A80EBC018091F6
:10151000FE0282FD05C08091E4010E94A80EBC017C
:101520008091F2020E94A80E292F30E0232B11F0A7
:101530001FEF01C0182F8091F5024091F902481762
:1015400010F020E002C0282F241B00912B01480F2F
:101550008DE364EA0E94BB0E982F112311F480E002
:1015600013C08091DE01282F30E08091F602281B05
:101570003109210F311D290F311D832F9927892B07
:1015800011F08FEF01C0822FF8948093F3018093C4
:10159000F90178941F910F910895EF92FF920F93A4
:1015A0001F93DF93CF9300D0CDB7DEB7F89440916F
:1015B000E7010091E8017894401708F03AC0041B55
:1015C0008091EB02081748F18091E20184FF0DC081
:1015D00084E68093DF011092DE01F8948091E201AD
:1015E0008F7C8093E2017894BAC09091ED01809154
:1015F0001703981708F4B3C08091ED028093DF01C0
:10160000F8948091E2018F7E8093E2018091E20163
:1016100080628093E2017894A2C08091E20185FF0C
:101620009EC0F8948091E2018F7C8093E2017894CF
:1016300091C0F42EF01A8091EB02F81608F479C0EC
:101640008091E20184FF5EC00091E50180E06DECD5
:101650004091030324E60E94BB0E182F82E193E021
:1016600064E04F2D9E012F5F3F4F0E94590EA981CC
:10167000B0E0EA81F0E0A852BD4FE852FD4FDA96A3
:101680008C91DA9762AD1E964C9126850F2D0E94A3
:10169000BB0E682F812F70E00E94A80E7C01892F5D
:1016A0009927892B19F0E8ECEE2EF12C0091E50139
:1016B00080E06DEC4091EA0220E00E94BB0E9701B1
:1016C000280F311D832F9927892B11F02EEF30E041
:1016D0008091DE0190E08217930710F42093DE01E1
:1016E0008091E20185FD06C09091D5018091D601DF
:1016F0009817A8F1F8948091E2018F7C8093E20121
:10170000789428C08091E6028093DE011092D50182
:101710008091EC028093D601F8948091E20180617F
:101720008093E2018091E2018F7D8093E2017894C1
:1017300016C08091E20185FD06C09091D50180918F
:10174000D601981760F0F8948091E2018F7C809325
:10175000E201789484E68093DF011092DE010F901D
:101760000F90CF91DF911F910F91FF90EF9008950F
:101770000F931F93DF93CF9300D0CDB7DEB7F894CC
:101780008091E20181FF0BC08D7F8C608093E2012C
:101790001092D70180911801806880931801789485
:1017A0004091E50188E093E06AE09E012F5F3F4FA2
:1017B0000E94590EA981B0E0EA81F0E00091E501B4
:1017C000A852BD4FE852FD4FD0968C91D09760A99A
:1017D00014964C9124810E94BB0E182F8091E20137
:1017E00082FF21C08091D7016091DB028617A0F4AF
:1017F0000091D70180E04091DA0220E00E94BB0E08
:10180000212F30E0280F311D832F9927892B11F0CC
:101810002FEF30E0122F07C0F8948091E2018B7F08
:101820008093E2017894153668F4F8948091E2018F
:10183000837F8093E2017894809118018F77809361
:10184000180114E61093DA010F900F90CF91DF91F9
:101850001F910F9108951F920F920FB60F921124AE
:101860008F939F93E8988091E1018F3F19F08F5FEC
:101870008093E1018091D7018F3F19F08F5F8093B2
:10188000D7018091EB019091EC019093EA01809354
:10189000E9011092EC011092EB018091E30181606B
:1018A0008093E3012C9A8091E20181608093E201B0
:1018B0008091E20181FF06C08091E2018F7C8093DC
:1018C000E2010EC090910C019F5F90930C018091FA
:1018D000F302981729F09830E8F110920C013AC001
:1018E00010920C018091E20181FD04C08091F4020C
:1018F000882391F48091F3018093F1018091F901A3
:101900008093F7011092F2011092F8018091F0019A
:1019100083608093F0010DC080910D018F5F8093F3
:101920000D0180FF0CC08091F9018093F7011092A6
:10193000F8018091F60183608093F6010BC08091DD
:10194000F3018093F1011092F2018091F001836024
:101950008093F0019F918F910F900FBE0F901F9079
:10196000189590911901913071F480910B018823A1
:1019700051F41092190190930B01809118018F7D01
:1019800080931801089590910B01943131F4809166
:10199000180180628093180102C0992359F09F5F5B
:1019A00090930B018091E30182FF04C09D3711F4F5
:1019B00010920B0108951F920F920FB60F921124EF
:1019C0002F933F934F935F936F937F938F939F9347
:1019D000AF93BF93EF93FF938091F00181FF11C00C
:1019E0008091F0018D7F8093F0018091F0018560FE
:1019F0008093F00180911801806480931801299AE6
:101A00005B9A8091F60181FF11C08091F6018D7F74
:101A10008093F6018091F60185608093F6018091B4
:101A200018018064809318012A9A5C9A8091F001D1
:101A300082FF2DC09091F2018091F101981768F01A
:101A40008091F001887F8093F001809180008F73F6
:101A50008093800029985B9815C09091F201809145
:101A6000F501981779F48091F4012AE0829FC00172
:101A70001124909389008093880080918000806C6D
:101A8000809380008091F2018F5F8093F2018091BA
:101A9000F60182FF2DC09091F8018091F70198170F
:101AA00068F08091F601887F8093F6018091800034
:101AB0008F7C809380002A985C9815C09091F801E3
:101AC0008091FB01981779F48091FA012AE0829FB6
:101AD000C001112490938B0080938A008091800034
:101AE0008063809380008091F8018F5F8093F8017C
:101AF0008091E20180FF56C08091F00180FD09C015
:101B00008091F60180FD05C0809118018F7B809344
:101B100018012091EB013091EC018091E901909145
:101B2000EA01969587952817390739F08091EB01DE
:101B30009091EC01883C910519F4E09A81E08DBB0D
:101B40008091EB019091EC0101969093EC018093D0
:101B5000EB018091EB019091EC01892F992784365C
:101B6000910510F11092E2018091E301846180936C
:101B7000E3018FEF9FEF9093EA018093E9011092C8
:101B8000EC011092EB011092ED0185B1877E85B9D1
:101B9000809118018F73809318011092F1011092B7
:101BA000F70102C081E08DBB8091FC018F5F8093C3
:101BB000FC018A3009F06CC01092FC010E94B10C4B
:101BC00080910F018F5F80930F01853021F4109277
:101BD0000F010E94FE048091FF018F5F8093FF013F
:101BE000843681F41092FF018091D5018F5F80933C
:101BF000D5018091E7018093E80180910202816024
:101C0000809302028091FD019091FE0101969093D4
:101C1000FE018093FD01885E934091F41092FE01D5
:101C20001092FD0180910002909101020196909323
:101C3000010280930002809102028460809302027C
:101C400080910E018F5F80930E018A3039F41092DB
:101C50000E018091020282608093020220911001A5
:101C6000409122032F5F20931001215030E0842FF8
:101C700082958F7090E02817390754F01092100168
:101C80008091E20180FD02C042FF02C00E94260F47
:101C9000FF91EF91BF91AF919F918F917F916F9144
:101CA0005F914F913F912F910F900FBE0F901F901A
:101CB0001895D901FC0190E021E080E008C020E007
:101CC0008081481708F021E03196892F9F5F961791
:101CD00010F42223A1F7882329F411961C9211975E
:101CE0001C92089581508C938F5F11968C93089568
:101CF000FC0181818283908191836083691708F45C
:101D0000692F8281891708F4892F861708F4682FB4
:101D1000862F0895FC019B01681779072CF09A0122
:101D20004E175F070CF49F01C9010895681724F04E
:101D3000642F48170CF4682F862F0895861708F42F
:101D4000682F862F0895681708F4682F862F089546
:101D500090E09C01629FC001639F900D729F900D67
:101D6000112464E670E00E94EA12C29714F06F5FDB
:101D70007F4FCB0108950F931F93142F8017D0F539
:101D8000061710F0122F36C0681BA1F1081BA02FF8
:101D9000B0E0E42FF0E0422F50E0062F0695211727
:101DA000A8F4E41BF50BAE9FC001AF9F900DBE9F42
:101DB000900D112470E00E94EA12202F30E082176B
:101DC000930714F06F5F7F4F161B14C04E1B5F0B01
:101DD000A49FC001A59F900DB49F900D112470E0A9
:101DE0000E94EA12202F30E08217930714F06F5FF1
:101DF0007F4F160F812F1F910F910895982F80917B
:101E000004028C7011F580910602981790F4F894F2
:101E100080910602891B80930502809104028D7FC8
:101E2000809304028091040281608093040278947C
:101E30000895F89480910602981B90930502809172
:101E400004028360809304027894089580910502CF
:101E5000882309F455C08091220381FF05C0809139
:101E60002B01853408F446C080910502815080938F
:101E70000502809104028F7E809304028091040207
:101E80009091110181FF07C09F5F90931101809194
:101E900006028F5F06C09150909311018091060257
:101EA00081508093060280910502882371F580910C
:101EB00004028E7F809304028091040282FF12C08C
:101EC000809104028B7F80930402809104028860D9
:101ED000809304028091070280930502809104029E
:101EE00083600BC08091040283FF0FC080910402C5
:101EF000877F03C08091040280618093040208956B
:101F000080910402827F80930402089580E0089506
:101F10000F931F9380912703809317010091E50190
:101F200080E06DEC4091290320912A030E94BB0EB2
:101F300003E213E0F801608190E070E040E050E0DF
:101F40000E948A0EA7E0B2E0809307028091070208
:101F500080931E01FD01339785E0808380818D7F12
:101F60008083F8018081865F8E93FD0182931F91AB
:101F70000F910895CF93DF93F894C091EE01D09123
:101F8000EF0178948091E50190912603891718F06C
:101F9000809128030BC02091E50130E0892F90E06B
:101FA00003972817390724F480912703809317019A
:101FB0008091E20181FF08C0F8948091E2018F775F
:101FC0008093E2017894CAC09091E7018091250343
:101FD000891708F4ADC08091E20187FD15C0F8941F
:101FE000809104028F7D8093040278946091230392
:101FF00080911E0190E070E040E050E00E948A0E67
:1020000080931C010E94FE0EF8948091E20180688A
:102010008093E20178948091040280FD9FC08091BA
:1020200013018F5F8093130190912D03891708F19D
:102030001092130180911701282F30E080912B031B
:10204000482F50E0CA01820F931F8C179D0728F478
:1020500060912C036F70619509C0241B350BC2176A
:10206000D30738F460912C0362956F7010921201BF
:1020700001C060E0809114018F5F80931401909102
:102080003003891708F440C0109214016623E1F56B
:1020900080911701282F30E080912E03482F50E0C7
:1020A000CA01820F931F8C179D0718F560912F03AB
:1020B0006F70619580910602882331F5809112013D
:1020C0008F3F19F08F5F80931201909112018091E0
:1020D00024039817C8F010921201F8948091060218
:1020E000882329F4809106028F5F809306027894FA
:1020F0000BC0241B350BC217D30720F460912F03AC
:1021000062956F701092120120910602862F992716
:1021100087FD909560912303820F911D70E040E050
:1021200050E00E948A0E80931C010E94FE0E16C091
:10213000F8948091E2018F778093E2017894809106
:10214000040285FD0BC080911C0180931E01F89450
:10215000809104028062809304027894D0931601E7
:10216000C0931501DF91CF9108959091F80290935B
:10217000F5018091F7028093F4019093FB01809325
:10218000FA018FE08093170383E080931603809118
:10219000FF02809319038093180310921A038FEFA4
:1021A00080931B031092080324E12093090338E273
:1021B00030930A038CE380930B0380E580930C0338
:1021C00044E640930D0388E780930E038CE88093E8
:1021D0000F038AEA8093100388EC8093110395E043
:1021E0009093120320931303309314038DE4809390
:1021F00015038AEF80931E0390931F0340931C03E3
:1022000020931D0310922003089510922501089534
:102210008091250182FF02C08FEF089580912501F2
:1022200086608093250180E008951F920F920FB67B
:102230000F9211248F93809125018E7F8093250129
:10224000FB988F910F900FBE0F901F901895CF9213
:10225000DF92EF92FF920F931F93CF93DF93E09063
:102260002001F09021010091220110912301C7016A
:10227000800F911F0E940D13C0902601D09027015E
:102280000C0D1D1DF8016081C0911A01D0911B0138
:10229000219710C089010F5F1F4F109323010093F6
:1022A0002201C701800F911F0E940D130C0D1D1DEF
:1022B000F80160812091220130912301861761F09D
:1022C000C701820F931F0E94151380912501816021
:1022D00080932501FB9A03C02C173D07D8F220916B
:1022E00022013091230180911A0190911B010197E5
:1022F0002817390710F081E007C02F5F3F4F309358
:1023000023012093220180E0DF91CF911F910F9153
:10231000FF90EF90DF90CF90089580911D01813064
:10232000F1F0813020F08230B1F181E0089580E059
:1023300090E0909321018093200188ED92E09093AA
:1023400027018093260188E690E090931B018093FB
:102350001A01109223011092220181E021C00E94F3
:102360002711882309F188E690E09093210180935A
:10237000200188E092E0909327018093260180ED70
:1023800090E090931B0180931A0110922301109208
:10239000220182E005C00E942711882329F083E0F2
:1023A00080931D0180E0089580E0089580912501CB
:1023B00082FF19C08091250181FF08C0809125010D
:1023C0008D7F8093250110921D0108958091250134
:1023D00080FD09C00E948D11882329F0809125017C
:1023E0008B7F80932501089588ED92E060E070E096
:1023F00048E650E00E94FD1288E092E068E670E056
:1024000040ED50E00E94FD120E94B5100895EF9239
:10241000FF920F931F93DF93CF9300D000D0CDB7DF
:10242000DEB78091FE0282FF04C08091E7018093B5
:10243000E4014091E40180ED92E068E09E012F5FAD
:102440003F4F0E94590E4091ED0188EC92E068E008
:102450009E012D5F3F4F0E94590EE9812E2F30E0E3
:1024600053E0220F331F5A95E1F78B8190E06C8186
:1024700070E0AA81B0E043E0AA0FBB1F4A95E1F7E4
:10248000FD01E80FF91FEE0FFF1FE85FFD4FE18030
:10249000A60FB71FAA0FBB1FA85FBD4F1196FC90D8
:1024A0000091ED01F901E80FF91FEE0FFF1FE85F42
:1024B000FD4F4181260F371F220F331F285F3D4FED
:1024C000F901218188539D4FFC01808168537D4F24
:1024D000FB0160810E94BB0E182F0091ED01AB81C2
:1024E000B0E0A853BD4FEC81F0E0E853FD4F8C9174
:1024F00060814E2D2F2D0E94BB0E282F0091E401EC
:10250000A981B0E0A053BD4FEA81F0E0E053FD4F58
:102510008C916081412F0E94BB0E8093DD010F9052
:102520000F900F900F90CF91DF911F910F91FF901F
:10253000EF900895FC011182108212820895DC014F
:1025400012968C9112978032A8F411968C91119763
:10255000FD01E80FF11D6383982F9F5F903208F013
:1025600090E012968C9112978F5F12968C9312972F
:1025700011969C930895CF93DF93EC01F8948A8190
:10258000882381F081508A8378948881FE01E80F46
:10259000F11D8381FB01099588818F5F803208F0EE
:1025A00080E088837894DF91CF910895AA1BBB1BAC
:1025B00051E107C0AA1FBB1FA617B70710F0A61B43
:1025C000B70B881F991F5A95A9F780959095BC0164
:1025D000CD01089597FB092E07260AD077FD04D078
:1025E000E5DF06D000201AF4709561957F4F0895BD
:1025F000F6F7909581959F4F0895DC01CB01FC0182
:10260000F999FECF06C0F2BDE1BDF89A319600B44B
:102610000D9241505040B8F70895F999FECF92BD00
:1026200081BDF89A992780B50895262FF999FECF94
:102630001FBA92BD81BD20BD0FB6F894FA9AF99ADF
:0A2640000FBE01960895F894FFCF35
:02264A0014007A
:00000001FF
